:03000000020100FA
:1001000012810C786412811C60FBB40A0050F690D6
:1001100001A11201B1FDF564756500128122E6129C
:100120008104747C12810279019001AB75640075C1
:100130006500E91201B1FA12811CFBB40A0050F704
:100140002430128102EA8BF0A426F6E5F00836F698
:100150001809B907DD747C128102C3E69DF608E632
:100160009400F61812812208E612810418E6128122
:1001700004747C128102742012810212812075F0B5
:1001800032128128FEE61281049001AB7902E91255
:1001900001B1F5F0EE84AEF012810409B907EF80E9
:1001A000FE17150B1010120C21241C32140A050224
:0401B0000114932281
:00000001FF
