:03000000020100FA
:1001000078807982744812015E089001667B08E469
:100110009312015EA3DBF818740112015E740F12D2
:10012000015E740612015E08900176745012015E41
:100130000890016E7B08E49312015EA3DBF818744B
:100140000112015E740F12015E740612015E0890C6
:100150000176E493600612015EA380F680FEFAE366
:1001600020E7FCEAF2221F181F1F181F1F000404BB
:100170001F04040400004764616E736B20200102B9
:01018000007E
:00000001FF
