:03000000020100FA
:0B000B00C0E0C0D0D2D3758CE20163CE
:10001B00C0E0C0D0758DDC0530740AB53035753055
:10002B00000531740AB5312B7531000532740AB5F0
:10003B00322175320005337406B53317753300055D
:10004B0034740AB5340D75340005357406B53503B3
:10005B00753500D0D0D0E0327838D296E7B9360279
:10006B00800F3146C0E0C3EA55376001D3D0E09230
:10007B00E7F2EA7830F2C29623FA09B937047A012B
:07008B007930D0D0D0E03243
:100100007581603159758910758CE2758DDC758B40
:100110000075A88A75B808758810D2D37A0179302D
:10012000C2D312810C90016D128100128116D28E01
:1001300075361012810C90018D128100128116C249
:100140008E75362021220483223F065B4F666D7D2B
:10015000077F6F777C395E7971E4F530F531F532E0
:10016000F533F534F53575362075371422454E5480
:100170004552202D3E205354415254202052455385
:1001800045542052414D2D3E434C522000454E5483
:0B0190004552202D3E2053544F5000DC
:00000001FF
